:060000000A128A11122809
:10000800FE00030EF1000408F2000A08F300831250
:1000180003137F08F4000A128A155E2D0A128A114A
:10002800152883136430FD001630FE006530FF008C
:100038005D3084000A128A11EE20D301D401D50163
:10004800D601D701D801D901DA01DB01DC01F601BB
:10005800F701F80183010A128A15A12E83120313EE
:100068003208B5003308B6003408B7000310360D5F
:10007800370DB8003808BD003D08031D4A28003078
:10008800AF000030B0000030B10008002F08B50004
:100098003008B6003108B7000310360D370DB80028
:1000A8003808BE003E08031D60280030AF0000304D
:1000B800B0000030B10008000030BA000030BB00CA
:1000C8000030BC0089303E07B5003508BD02320853
:1000D800B5003308B6003408B70010300310B70C69
:1000E800B60CB50CFF3E031D72283508B800380859
:1000F800BE002F08B5003008B6003108B700103030
:100108000310B70CB60CB50CFF3E031D8428350848
:10011800B8003808BE068030B5003508BE05B317EC
:10012800FF30B205FF30B3050030B405B017FF301B
:10013800AF05FF30B0050030B1051830B5003508FF
:10014800B90001300310BA0DBB0DBC0DFF3E031DF5
:10015800A62831083402031DB72830083302031DCE
:10016800B7282F083202031CC4282F08B20230080F
:10017800031C300FB3023108031C310AB4023A14CD
:1001880001300310B20DB30DB40DFF3E031DC52899
:100198000130B902031DA5283A08A0003B08A100B8
:1001A8003C08A2003D08B5003508A3003E08B6008B
:1001B8003608A4000A168A11BF26831203132008E2
:1001C800AF002108B0002208B10008007E088A00AC
:1001D8007F088200EA200A128A118000840A040833
:0E01E8007D0603190034FF0A0319FE0AEE28F3
:10020000FF1B0A2983137F1883170008840A031928
:10021000FF0A08007F087F398A000408840A03194E
:10022000FF0A82000034003400340034003400340B
:10023000003400340034003400340034003400341E
:10024000003400340034003400340034003400340E
:1002500000340034003400340034003400340034FE
:1002600000340034003400340034003400340034EE
:1002700000340034003400340034003400340034DE
:1002800000340034003400340034003400340034CE
:1002900000340034003400340034003400340034BE
:1002A00000340034003400340034003400340034AE
:1002B000003400340034003400340034003400349E
:1002C000003400340034003400340034003400348E
:1002D000003400340034003400340034003400347E
:1002E000003400340034003400340034003400346E
:1002F000003400340034003400340034003400345E
:10030000003400340034003400340034003400344D
:10031000003400340034003400340034003400343D
:10032000003400340034003400340034003400342D
:10033000003400340034003400340034003400341D
:10034000003400340034003400340034003400340D
:1003500000340034003400340034003400340034FD
:10036000003400340034003400343634363436344B
:10037000003400340034003400343634363436343B
:1003800000340034003406343E343E343C343834D7
:100390001834183438343C343E343E340634003497
:1003A00002340E341E343E343834203420343E348B
:1003B0003E343E340034003400340234023402341B
:1003C000023402343E343E343E34003402340234CB
:1003D0000234023402343E343E343E3400340034BD
:1003E00006343E343E343C3438341834183438340F
:1003F0003C343E343E340634003400343C343E3425
:100400003E3422342234223406340E343C343C341C
:100410003C342034003400340034003400340034E0
:1004200000340034003438343E343E343E343E34FC
:100430003C34203420343C343E341E343E343E348C
:1004400038340034003400340234023402340234CC
:100450003E343E343E3400340034203420342034E2
:10046000203420343E343E343E34003400340034F2
:1004700000340034003400340034003400340034DC
:1004800000340034003400340034003400340034CC
:100490000034003430343F343F343F3400340034CF
:1004A0000034003430343F343F343F3400340034BF
:1004B00000340034003403340F341F341E341E342F
:1004C0001F340F34013400340034003400340F344E
:1004D0001F341F341934103410341F341F341F34A8
:1004E0000034003400341134113411341134113417
:1004F0001F341F341F3400340034003400340034FF
:1005000000341F341F341F340034003400340034EE
:1005100003340F341F341E341E341F340F3401349F
:1005200000340034003400340834183410341034EB
:100530001034103418341C340F340F3407340134A1
:1005400000340034003400340034003400341834F3
:100550001F341F340F340034003407341F341F3469
:100560001F341F340334003401340F341F341F345C
:100570001834003400340034003400341F341F3485
:100580001F3400340034103410341034103410345C
:100590001F341F341F34003400340034003400345E
:1005A00000340034003400340034003400340034AB
:1005B000003400340034003400340034003400349B
:1005C000003400340034003400340034003400348B
:1005D000003400340034003400340034003400347B
:1005E000003400340034003400340034003400346B
:1005F000003400340034003400340034003400345B
:10060000003400340034003400340034003400344A
:10061000003400340034003400340034003400343A
:10062000003400340034003400340034003400342A
:10063000003400340034003400340034003400341A
:10064000003400340034003400340034003400340A
:1006500000340034003400340034003400340034FA
:1006600000340034003400340034003400340034EA
:1006700000340034003400340034003400340034DA
:1006800000340034003400340034003400340034CA
:1006900000340034003400340034003400340034BA
:1006A00000340034003400340034003400340034AA
:1006B000003400340034003400340034003400349A
:1006C000003400340034003400340034003400348A
:1006D000003400340034003400340034003400347A
:1006E000003400340034003400340034003400346A
:1006F00000340034003420342034203420342034BA
:100700002034203420340034003420342034203489
:100710002034203420342034203420342034203439
:100720002034203420342034203400342034203449
:100730002034203420342034203420342034003439
:100740000034203420342034203400340034003489
:100750002034203420342034003400340034003479
:1007600000340034003400340034003400340034E9
:1007700000340034203420343034303430343834D1
:10078000383438343C341C341C340E340E343E348B
:100790003F343F340E340E341C341C341C34383493
:1007A0003834383430343034203420340034003499
:1007B0000034003400340034003400340034003499
:1007C0000034003400340034003400342034203449
:1007D00030343034383438343C341C341E343E34F5
:1007E0003E343E341C341C343C34383438343034D9
:1007F0003034303420342034203400340034003499
:100800000034003400340034003400340034003448
:1008100000340034003400340034003438343E34C2
:100820003F343F34073403340134013403340F348C
:100830003F343F343E3439340134013401343F34E1
:100840003F343F343F343F340134013401343F34CA
:100850003F343F343F343F34013421342134213498
:1008600021343F343F343F343F34003400343F348C
:100870003F343F343F342034203420343F343F343D
:100880003F343F340034003400340034003400344A
:10089000003400340034003400340F340F341F347B
:1008A0003F343B34333421340134013400340034D8
:1008B00000340034003400343E343F343F340134DB
:1008C0000034003400342034303438343C343E3486
:1008D0001F340F3407340334003400340034003440
:1008E0000034003400340034003400340034003468
:1008F0003E343E343F340734073403340334013488
:10090000013400340034203420343F343F343F3449
:1009100020342034203400340034013401340334D2
:100920003F343F343F34003400340034003400346A
:100930000034003400340034003400340034003417
:10094000003400340034003407340F341F343F3493
:100950003C3438343034303438343E343F341F344F
:100960000F3403340034003400343F343F343F3418
:100970003F343F340034003400343F343F343F349C
:100980003F343F34303431343134313431343F3416
:100990003F343F343F34003400343F343F343F343D
:1009A0003F340134013401343F343F343F343F3469
:1009B0000034003400340034003400340034003497
:1009C0000034003400340034003400340034013486
:1009D000033407340F340E341E343C34383430348E
:1009E000203438343F343F34373438343C343E34A8
:1009F0001F340F340734033401340034003400341E
:100A00000034003400340034003400340034003446
:100A10000034003400340034003400343F343F34B8
:100A20003F34383438343C341C341E340E340F34E4
:100A300007340734033403340134013403340334FA
:100A400003342734273427343E343E343F343F3494
:100A50001F340034003400340034003400340034D7
:100A600000340034003400340034003400340034E6
:100A700000340034003400340034003400340034D6
:100A800000340034003400340034003400340034C6
:100A900000340034003400340034003400340034B6
:100AA00000340034003400340034003400340034A6
:100AB0000034003400340034003400340034003496
:100AC0000034003400340034003400340034003486
:100AD0000034003400340034003400340034003476
:100AE0000034003400340034003400340034003466
:100AF0000034003400340034003400340034003456
:100B000000340034003400340134033407340F342B
:100B10000F34073407340334013400340034003414
:100B20000034003400340034003400340034003425
:100B30000034003400340034003400340034003415
:100B400000340034003400340134013403340334FD
:100B50000334073407340E340E341E341C34383456
:100B60003C341C341C340E340E340F340734073438
:100B700003340334013401340134003400340034CC
:100B800000340034003400340034003400340034C5
:100B900000340034003420343034383438341C34D9
:100BA0001C340E340E340E340E340E340E341C3419
:100BB0001C343C34383430343034003400340034A5
:100BC0000034003400340034003400340034003485
:100BD0000034003400340034003400340034003475
:100BE000003400343034303438343C341C341E3457
:100BF0000E340E340E340E340E340E341E341C34C7
:100C00003C34383430343034003400340034003470
:100C10000034003400340034003400340034003434
:100C200000340034003400340034003400343034F4
:100C3000303438343C341C341E340E340E340E340C
:100C40000E340E340E341E341C343C3438343034FC
:100C500030340034003400340034003400340034C4
:100C600000340034003400340034003400340034E4
:100C700000340034003400343034303438343C3400
:100C80001C341E340E340E340E340E340E340E3436
:100C90001E341C343C3438343034303400340034A6
:100CA00000340034003400340034003400340034A4
:100CB00000340034003400340034003438343E341E
:100CC0003F340F340334013400341C341C341C34DE
:100CD00000340034003400341C341C341C34003420
:100CE000013403340F343F343E343834003400349C
:100CF0000034003400340034003400340034003454
:100D00000034003400340034003438343E343F348E
:100D10000F3403340134063406341E341C341834C2
:100D2000183418341C340E340634063400340134BC
:100D300003340F343F343E3438340034003400344C
:100D40000034003400340034003400340034003403
:100D50000034003438343E343F340F34033401342B
:100D600000340E340E340E340E340E340E340E3481
:100D70000E340E340E340034013403340F343F3457
:100D80003E3438340034003400340034003400344D
:100D9000003400340034003400340034003438347B
:100DA0003E343F340F34033401340C340C340E34ED
:100DB000073403340334033407340F340C340C3455
:100DC0000034013403340F343F343E3438340034BB
:100DD0000034003400340034003400340034003473
:100DE00000340034003400340F343F343F3438349E
:100DF000203400340034183418343834303420347B
:100E0000203420343034383418341834003420344A
:100E100038343F343F340F3400340034003400346D
:100E20000034003400340034003400340034003422
:100E30000034003400340F343F343F34383420342D
:100E4000003400341C341C341C34003400340034AE
:100E500000341C341C341C34003400342034383446
:100E60003F343F340F340034003400340034003455
:100E700000340034003400340034003400340034D2
:100E80000F343F343F3438342034003400341C34C1
:100E90001C341C3400340034003400341C341C3442
:100EA0001C3400340034203438343F343F340F34A1
:100EB0000034003400340034003400340034003492
:100EC000003400340034003400340F343F343F34F5
:100ED00038342034003400341C341C341C340034C6
:100EE0000034003400341C341C341C34003400340E
:100EF000203438343F343F340F340034003400346D
:100F00000034003400340034003400340034003441
:100F100000340034003400340134073407340F3413
:100F20001E341C343C34393439343934393439348E
:100F300039343C341C341E340F3407340734013444
:100F40000034003400340034003400340034003401
:100F500000340034003400340034003400340034F1
:100F60000034003400340134073407340F341E34A5
:100F70001C341C3438343834383438343834383449
:100F80001C341C340E340F34073403340134003461
:100F900000340034003400340034003400340034B1
:100FA00000340034003400340034003400340034A1
:100FB0000134073407340F341E341C341C343834E5
:100FC000383438343834383438341C341C340E3423
:100FD0000F34073403340134003400340034003457
:100FE0000034003400340034003400340034003461
:100FF0000034003400340034003401340734073442
:101000000F341E341C341C343834383438343834FB
:10101000383438341C341C340E340F340734033461
:10102000013400340034003400340034003400341F
:101030000034003400340034003400340034003410
:101040000034003400340034003400340034003400
:1010500000340034003400340034003400342034D0
:1010600000340034003400340034003400340034E0
:1010700000340034003400340034003400340034D0
:1010800000340034003400340034003400340034C0
:1010900000340034003400340034003400340034B0
:1010A00000340034003400340034003400340034A0
:1010B0000034003400340034003400340034003490
:1010C0002034003400340034003400340034003460
:1010D0000034003400340034003400340034003470
:1010E0000034003400340034003400340034003460
:1010F0000034003400340034003400340034003450
:10110000003400340034003400340034003400343F
:10111000003400340034003400340034003400342F
:1011200000342034003400340034003400340034FF
:10113000003400340034003400340034003400340F
:1011400000340034003400340034003400340034FF
:1011500000340034003400340034003400340034EF
:10116000003400340034003420342034203430344F
:1011700030343034383438343C343C343C343E340D
:101180003E343E343F343F343F343F3438343834D7
:1011900038343834383438343834383438343834EF
:1011A00038343834383438343834383438343834DF
:1011B000383438340034003400340034003400341F
:1011C000003400340034003400342034203420341F
:1011D000303430343034383438343C343C343C34BB
:1011E0003E343E343E343F343F343F343F343F346A
:1011F000383438343834383438343834383438348F
:10120000383438343834383438343834383438347E
:101210003834383438340034003400340034003486
:1012200000340034003400340034003420342034DE
:101230002034303430343034383438343C343C3476
:101240003C343E343E343E343F343F343F343F340C
:10125000383438343834383438343834383438342E
:10126000383438343834383438343834383438341E
:1012700038343834383438340034003400340034EE
:1012800000340034003400340034003400340334BB
:1012900003340334073407340F340F340F341F344E
:1012A0001F341F343F343F343F343F343F343F34E6
:1012B0003F343F343F343F341F341F341F341F3416
:1012C0001F341F341F341F341F341F341F341F3486
:1012D0001F341F341F341F341F341F341F341F3476
:1012E000003400340034003400340034003400345E
:1012F0000034033403340734073407340F340F3415
:101300000F341F341F341F343F343F343F343F34D5
:101310003F343F343F343F343F343F341F341F3475
:101320001F341F341F341F341F341F341F341F3425
:101330001F341F341F341F341F341F341F341F3415
:101340001F340034003400340034003400340034DE
:101350000034033403340334073407340F340F34B8
:101360000F341F341F341F343F343F343F343F3475
:101370003F343F343F343F343F343F341F341F3415
:101380001F341F341F341F341F341F341F341F34C5
:101390001F341F341F341F341F341F341F341F34B5
:1013A0001F341F340034003400340034003400345F
:1013B000003400340034003400340034003400348D
:1013C000003400340034003400340034003400347D
:1013D0000034003400340134013401340334033464
:1013E0000334073400340034003400340034003453
:1013F000003400340034003400340034003400344D
:10140000003400340034003400340034003400343C
:10141000003400340034003400340034003400342C
:10142000003400340034003400340034003400341C
:101430000034003400340034003401340134033407
:1014400003340334073403340034003400340034EC
:1014500000340034003400340034003400340034EC
:1014600000340034003400340034003400340034DC
:1014700000340034003400340034003400340034CC
:1014800000340034003400340034003400340034BC
:1014900000340034003400340034013401340134A9
:1014A000033403340334073400340034003400348C
:1014B000003400340034003400340034003400348C
:1014C000003400340034003400340034003400347C
:1014D000003400340034003400340034003400346C
:1014E000003400340034003400340034003400345C
:1014F000003400340034003400340734033407343B
:101500000F341F340F340F341F343F341F340F3463
:101510000F341F34073407340734023400340034E6
:10152000003400340034003400340034003400341B
:10153000003400340034003400340034003400340B
:1015400000340034003400340034003400340034FB
:1015500000340C340C3400341034303438343E341D
:101560003E343F343F343F343F343F343E343834EC
:1015700000340034003400340034003400340034CB
:1015800000340034003400340034003400340034BB
:1015900000340034003400342034303438343C34E7
:1015A0003C343E343F343F343F343F343F343F34A7
:1015B0003F343F343F34303430342034003400344E
:1015C000003400340034003400340034003400347B
:1015D000003400340034003400340034003400346B
:1015E000003400340034003400340034003400345B
:1015F000003400340034003400340034003400344B
:10160000003400340034003400340034003400343A
:10161000003400340034003400340034003400342A
:101620000034003400340034003400340134013418
:101630000134013400340234003400340034003406
:10164000223400340634063402340E343C3433344D
:101650002634343420340034003400340034003470
:101660000034283430343034003400340034003452
:1016700000340034003400340034203438342C3446
:101680003C343C341E343F343F343F343F343F34E9
:101690003F343F343F343F343F343F343E343C34B6
:1016A00038343834383438343834383438343834DA
:1016B0003834303400340034003400340034003422
:1016C0000034003400340134013401340134033473
:1016D00007340734073407340F340F340F340F3412
:1016E0000F340F340F340F340334003410341034FB
:1016F00020342034203420340034003400340034CA
:101700000034003400340034003400340034003439
:101710000034003400340034003400340034003429
:101720000034003400340034003400340034003419
:101730000034003400340034003400340034003409
:1017400000340034003400340034003400340034F9
:1017500000340034003400340034003410340034D9
:101760000034003400343034303430343C343C34D1
:101770003E343E343E343F343E343F343F343F34D5
:101780003F343F343E343E343E343F343F343F34C4
:101790003F343F343F343E343E343E343E343E34B6
:1017A0003E343F343F341F341F343F343F343F34E2
:1017B0001F341E341F34173417343734273427347A
:1017C0002734073407340F340F340F340F340F34F9
:1017D0002F342F343F343F343F3407340334033441
:1017E0000034003400340034003400340034003459
:1017F0000034003400340034003400340034003449
:101800000034003400340034003400340034203418
:101810002034303438343C34383438343934383483
:1018200038343C343F343F343F343E343C343C3431
:101830003C343834383430343034003400340034FC
:1018400000340034003400340034003400340034F8
:1018500000340034003400340034003400340034E8
:101860000034003400340034303430343034303418
:1018700030343034303438343C3434343034303430
:1018800030343034303432343A343F343F343F34FF
:101890003F343F343F343F343F343F343F343F34B0
:1018A0003F343F343F343F343F343F343F343F34A0
:1018B0003F343F343F343F343F343F343F343F3490
:1018C0003F343F343F343F343F343F343F343F3480
:1018D0003F343F343F343F343F343F343F343F3470
:1018E0003F343F343F343F343F343F343734373470
:1018F0003B341F341F341F340B340334033403349C
:101900000634043404340034003400340034003429
:101910000034003400342034203420342034203487
:10192000303430343034303420340034023406342F
:10193000063406342F3437343F342F343F340F34D9
:101940000734073437340634273427343F343F34E0
:101950003F343F343F343F343F343F343F343F34EF
:101960003F343F343F343E343E343C343C343834EE
:10197000383438343034303430343034303438342F
:1019800038343834383430343034003400340034AF
:081990000034203496340434C5
:1019A000831203132008A4002108A5002208A60022
:1019B0000310250D260DA7002708AD002D08031DD7
:1019C000EA2C0030A3000030A2000030A10000305B
:1019D000A00008002008A4002108A5002208A600F5
:1019E00017300310A60CA50CA40CFF3E031DF12C10
:1019F0002408A7002708A800A117FF30A005FF3082
:101A0000A1050030A2052008A9002108AA0022088B
:101A1000AB00AC018E30AD02AD1F2C2D2D08803AED
:101A20008F3E03181C2D0030A3000030A2000030B0
:101A3000A1000030A000080001300310AC0CAB0C7A
:101A4000AA0CA90CFF3E031D1D2D0130A400240883
:101A5000AD070319472D1C2D18302D02031C442DF2
:101A60000030A3000030A2000030A1000030A00030
:101A700008000130A4000310A90DAA0DAB0DAC0D98
:101A8000A40B3B2D0130AD022D08031D392D280874
:101A90000319552DA909AA09AB09AC09A90A03190B
:101AA000AA0A0319AB0A0319AC0A2C08A3002B08D5
:101AB000A2002A08A1002908A0000800780803193C
:101AC000091C692D0130E4027708F0007008E2007B
:101AD000F701CA3084008C30FF000A128A110021FD
:101AE0000A128A15770203188B2E64087707F00014
:101AF0007008F600CA3084008C30FF000A128A1188
:101B000000210A128A157602031C952DCA30840022
:101B10008C30FF000A128A1100210A128A15FF3A3E
:101B2000013E7607F0007008F6005C08031DC42D26
:101B30007608723E84008A300318013EFF000A12C4
:101B40008A1100210A128A1585007608083E840051
:101B50008B300318013EFF000A128A1100210A127D
:101B60008A15860076089E3E84008B300318013E5D
:101B7000FF000A128A1100210A128A1587007608CE
:101B8000343E84008C30822E5C03031DF32D7608D6
:101B9000123E840081300318013EFF000A128A11B0
:101BA00000210A128A1585007608A83E840081303B
:101BB0000318013EFF000A128A1100210A128A1539
:101BC000860076083E3E840082300318013EFF0006
:101BD0000A128A1100210A128A1587007608D43E5B
:101BE00084008230822E02305C06031D232E76088C
:101BF0001A3E840088300318013EFF000A128A1141
:101C000000210A128A1585007608B03E84008830CB
:101C10000318013EFF000A128A1100210A128A15D8
:101C200086007608463E840089300318013EFF0096
:101C30000A128A1100210A128A1587007608DC3EF2
:101C400084008930822E03305C06031D532E7608F3
:101C5000C23E840085300318013EFF000A128A113B
:101C600000210A128A1585007608583E84008630C5
:101C70000318013EFF000A128A1100210A128A1578
:101C800086007608EE3E840086300318013EFF0091
:101C90000A128A1100210A128A1587007608843EEA
:101CA00084008730822E04305C06031D8B2E76085C
:101CB0006A3E840083300318013EFF000A128A1135
:101CC00000210A128A1585007608003E84008430BF
:101CD0000318013EFF000A128A1100210A128A1518
:101CE00086007608963E840084300318013EFF008B
:101CF0000A128A1100210A128A15870076082C3EE2
:101D0000840085300318013EFF000A128A11002169
:101D10000A128A158800003009180130F8000B11EA
:101D2000630881000130F0007008F7077408FF00B5
:101D300073088A0072088400710E8300FE0E7E0E06
:101D4000090083160313850186018701880103308A
:101D50008900831203139F010E30831603139F0023
:101D600002308100A0308B008312031385018601AD
:101D700087018801CA3084008C30FF000A128A1162
:101D800000210A128A15FF3ECF004F08E400CA3036
:101D900084008C3083120313FF000A128A11002181
:101DA0000A128A15CF0062084F060319A72F62088E
:101DB000CF00D001CF09D009CF0A0319D00ACA3009
:101DC00084008C30FF000A128A1100210A128A1541
:101DD0004F07D80050080318500AD9006308CF00F5
:101DE000D001CF09D009CF0A0319D00A4F08FF3E0E
:101DF000D60050080318013E003ED7005908A9003C
:101E00005808A8000A168A119A260A128A158312FF
:101E100003132808B2002908B3002A08B400CA3006
:101E200084008C30FF000A128A1100210A128A15E0
:101E30000A168A117C260A128A15831203132808AF
:101E4000AF002908B0002A08B1000A128A11322016
:101E50000A128A15831203132F08BF003008C0002E
:101E60003108C1005708A9005608A8000A168A11AF
:101E70009A260A128A15831203132808C200290819
:101E8000C3002A08C4000A168A112D270A128A15CF
:101E9000831203133F08D3004008D4004108D50043
:101EA0005D08BF005E08C0005F08C1005308C200A3
:101EB0005408C3005508C4000A168A112D270A12B7
:101EC0008A15831203133F08D3004008D400410849
:101ED000D5005308A0005408A1005508A2000A121A
:101EE0008A15D0240A128A15831203132108AF0021
:101EF0002008AE000A168A116C260A128A1583126F
:101F000003132F08803AFF0080307F02031D8A2FC1
:101F100002302E02031CA72F831203135308A000C4
:101F20005408A1005508A2000A128A15D0240A12EA
:101F30008A15831203132008CF004F08E307FB30F4
:101F40006302031CA72FFA30CF004F08E30083126F
:101F50000313D101D2015208803AFF0080307F0282
:101F6000031DB42F1E3051020318D42F41308312A9
:101F70000313D000ED30CF00CF0BBC2FD00BBC2F04
:101F8000C12F013083120313D1070318D20A003086
:101F9000D2075208803AFF0080307F02031DD22F03
:101FA0001E305102031CB62F013083120313DA07CF
:101FB0000318DB0A0030DB076108803ACF005B08BA
:101FC000803A4F02031DE62F5A0860020318C72EFD
:101FD00083120313DA01DB010130CF004F08DC0765
:101FE000CB3084008C30FF000A128A1100210A12C3
:101FF0008A15CF005C084F020318C72EDC01C72EDC
:102CCA00CD344C343E341E34003496347834831276
:102CDA000313AF1F08002E09B0002F09B100B00A74
:102CEA000319B10A3008AE003108AF000800F50038
:102CFA00750883120313AB00AC01AD012B08A000C9
:102D0A002C08A1002D08A2008E30AE002E08A300C8
:102D1A00A4010A168A11BF26831203132008A800E9
:102D2A002108A9002208AA000800F501831203134A
:102D3A00A91FA62EA809A909A80A0319A90AF50113
:102D4A00F50A2808A0002908A100A2018E30AB00CC
:102D5A002B08A3007508AC002C08A4000A168A11D7
:102D6A00BF26831203132008A8002108A9002208FD
:102D7A00AA0008008312031323080319C92E220884
:102D8A0021042004031DDC2E0030A0000030A10025
:102D9A000030A20008000130A5002508A307013071
:102DAA000310A20CA10CA00CFF3E031DD52EFE3071
:102DBA0022050319F72ED02E0130A5002508A307F6
:102DCA000130A007003003180130A10700300318B2
:102DDA000130A20701300310A20CA10CA00CFF3E87
:102DEA00031DF02EFF3022050319062FE12E0130B4
:102DFA00A30201300310A00DA10DA20DFF3E031D79
:102E0A00FF2EA11B0C2F023023020318FC2E2318BD
:102E1A00142FFF30A0057F30A105FF30A205031053
:102E2A00A30C2308A500A601A70110300310A50DC5
:102E3A00A60DA70DFF3E031D1B2F2508A00426087B
:102E4A00A1042708A204240803190800A2170800ED
:102E5A00831203133F08C5004008C6004108C70093
:102E6A000310460D470DC8004808C9004908031D4C
:102E7A00452F0030BF000030C0000030C1000800FC
:102E8A004208C5004308C6004408C7000310460D9F
:102E9A00470DC8004808CE004E08031D5B2F0030BE
:102EAA00BF000030C0000030C10008004E087B3E61
:102EBA00C5004508C9073F08C5004008C6004108C3
:102ECA00C70010300310C70CC60CC50CFF3E031D0B
:102EDA00672F4508C8004808CE004208C5004308C5
:102EEA00C6004408C70010300310C70CC60CC50C36
:102EFA00FF3E031D792F4508C8004808CE068030DA
:102F0A00C5004508CE05C017C317FF30C205FF30FC
:102F1A00C3050030C4050030CA000030CB000030C1
:102F2A00CC000730C5004508CD003F1CAA2F420837
:102F3A00CA07430803110318430A031DCB074408B1
:102F4A0003110318440A031DCC0701300310C10CF6
:102F5A00C00CBF0CFF3E031DAB2F01300310C20D86
:102F6A00C30DC40DFF3E031DB32F0130CD02031D57
:102F7A009A2F0930C5004508CD003F1CD22F4208C0
:102F8A00CA07430803110318430A031DCB07440861
:102F9A0003110318440A031DCC0701300310C10CA6
:102FAA00C00CBF0CFF3E031DD32F01300310CC0C05
:102FBA00CB0CCA0CFF3E031DDB2F0130CD02031DD3
:102FCA00C22F4A08A0004B08A1004C08A2004908D9
:102FDA00C5004508A3004E08C6004608A4000A1604
:102FEA008A11BF26831203132008BF002108C000DC
:062FFA002208C1000800DE
:02400E003A3F37
:00000001FF
