:020000007E2858
:10000800FF00030E8301A9000A08AA008A0122083A
:10001800A0002308A1002608003A031D1828091C7F
:1000280018282408A500A4012808003A031D582808
:100038002408CA3EF00001300318013EF1007008A0
:10004800A2007108A3006B208A110A1285002408F7
:10005800603EF00002300318013EF1007008A20073
:100068007108A3006B208A110A12860024089E3E9C
:10007800F00000300318013EF1007008A20071087A
:10008800A3006B208A110A1287002408343EF0006E
:1000980001300318013EF1007008A2007108A300A6
:1000A8006B208A110A128800003009180130A60056
:1000B8000B1127088100A40A2008A2002108A30028
:0E00C8002A088A00290E8300FF0E7F0E090011
:0E00D6008312031323088A0022088200080008
:1000E4006B208A110A128000840AA20A0319A30A47
:0800F400F003031D722808004F
:1000FC0083120313A4019630A500A6016F30A7004C
:10010C00A8018316850186018701880103308900C7
:10011C0083129F010E3083169F0002308100A030A5
:10012C008B00831285018601870188019C289D28FC
:10013C000034003400340034003400340034003413
:10014C000034003400340034003400340034003403
:10015C001034003400340034003430343034303453
:10016C003C343C343E343E343E343F343E343F34F5
:10017C003F343F343F343F343E343E343E343F34DE
:10018C003F343F343F343F343F343E343E343E34CE
:10019C003E343E343E343F343F341F341F343F34FE
:1001AC003F343F341F341E341F3417341734373464
:1001BC00273427342734073407340F340F340F34E3
:1001CC000F340F342F342F343F343F343F34073443
:1001DC00033403340034003400340034003400346D
:1001EC000034003400340034003400340034003463
:1001FC000034003400340034003400340034003453
:10020C00003420342034303438343C3438343834EE
:10021C003934383438343C343F343F343F343E3452
:10022C003C343C343C34383438343034303400349E
:10023C000034003400340034003400340034003412
:10024C000034003400340034003400340034003402
:0C025C000034003400340034003400345E
:10026800303430343034303430343034303438345E
:100278003C34343430343034303430343034323444
:100288003A343F343F343F343F343F343F343F34D3
:100298003F343F343F343F343F343F343F343F34BE
:1002A8003F343F343F343F343F343F343F343F34AE
:1002B8003F343F343F343F343F343F343F343F349E
:1002C8003F343F343F343F343F343F343F343F348E
:1002D8003F343F343F343F343F343F343F343F347E
:1002E8003F343F34373437343B341F341F341F34E2
:1002F8000B34033403340334063404340434003434
:100308000034003400340034003400340034203425
:1003180020342034203420343034303430343034F5
:100328002034003402340634063406342F3437348B
:100338003F342F343F340F3407340734373406340E
:10034800273427343F343F343F343F343F343F343D
:100358003F343F343F343F343F343F343F343E34FE
:100368003E343C343C343834383438343034303427
:100378003034303430343834383438343834303435
:0C038800303400340034003400342034E1
:1003940000340034003400340034003400340034B9
:1003A4000034003400340734033407340F341F346A
:1003B4000F340F341F343F341F340F340F341F34C1
:1003C4000734073407340234003400340034003472
:1003D4000034003400340034003400340034003479
:1003E4000034003400340034003400340034003469
:1003F40000340034003400340034003400340C344D
:100404000C3400341034303438343E343E343F3409
:100414003F343F343F343F343E34383400340034C6
:100424000034003400340034003400340034003428
:100434000034003400340034003400340034003418
:10044400003400342034303438343C343C343E34CA
:100454003F343F343F343F343F343F343F343F3400
:100464003F34303430342034003400340034003429
:1004740000340034003400340034003400340034D8
:1004840000340034003400340034003400340034C8
:1004940000340034003400340034003400340034B8
:1004A40000340034003400340034003400340034A8
:0C04B40000340034003400340034003404
:1004C000003400340034003400340034003400348C
:1004D000003400340034003400340034013401347A
:1004E0000134013400340234003400340034003468
:1004F000223400340634063402340E343C343334AF
:1005000026343434203400340034003400340034D1
:1005100000342834303430340034003400340034B3
:1005200000340034003400340034203438342C34A7
:100530003C343C341E343F343F343F343F343F344A
:100540003F343F343F343F343F343F343E343C3417
:10055000383438343834383438343834383438343B
:100560003834303400340034003400340034003483
:1005700000340034003401340134013401340334D4
:1005800007340734073407340F340F340F340F3473
:100590000F340F340F340F3403340034103410345C
:1005A000203420342034203400340034003400342B
:1005B000003400340034003400340034003400349B
:1005C000003400340034003400340034003400348B
:1005D000003400340034003400340034003400347B
:0C05E000003400340034003400340034D7
:02400E000A2F77
:00000001FF
