:02000000E32BF0
:10000800FF00030E8301B9000A08B8008A017008CE
:10001800A2007108A1002508A3002608A4002C0846
:10002800003A031D1C28091C1C282E08AB00AE0131
:100038002D08003A031D5C282E08B93EF000053053
:100048000318013EF1007008A5007108A600F02011
:100058008A110A1285002E084F3EF0000630031858
:10006800013EF1007008A5007108A600F0208A1171
:100078000A1286002E088D3EF00004300318013E57
:10008800F1007008A5007108A600F0208A110A1274
:1000980087002E08233EF00005300318013EF100CA
:1000A8007008A5007108A600F0208A110A128800BD
:1000B800003009180130AC000B112F088100AE0A7E
:1000C8002308A5002408A6002208F0002108F10052
:0E00D80038088A00390E8300FF0E7F0E0900E3
:1000E600FB14FB1F7D28FF30F300F200F100F00047
:0800F600FA0DF20CFF300800C6
:0E00FE00F201F101F001F801F30100300800F9
:10010C007B15FB1F90280130F300F201F101F00187
:08011C00FA0DF20CFF3008009F
:08012400FA1FF213003008007D
:10012C007C18CC28FC189D287C19EB289628A0015B
:10013C007208031DBD287108F2007008F1007808E0
:10014C00F000F801A0157208031DBD287108F2001B
:10015C007008F100F001A01120167208031DBD28D3
:10016C007108F200F101A01572080319DF282008AC
:10017C00F302031D031CE3280310F21BCC28F80D1B
:10018C00F00DF10DF20DF30BC328E3287B1B701C53
:10019C00E728F81FE728F00A0319F10A0319F20AF5
:1001AC00031DE728F20CF10CF00CF30A0319EB28F1
:1001BC00E7280130FC007F20EE280230FC0086206E
:1001CC00EE280430FC009220EE280830FC0073204E
:0401DC000000080017
:0E01E0008312031326088A00250882000800F7
:1001EE007B14FB1F0229F201FA1FFF30F200F1000F
:0A01FE00F000FA0DF20CFF300800CB
:06020800FB15FF300800A9
:10020E00A0017208031D1C297108F2007008F1008C
:10021E00F001A0157208031D1C297108F200F101EE
:10022E00A0112016720803192A292008F302031DB3
:10023E00031C2E290310F21B3229F00DF10DF20DC5
:10024E00F30B22292E290130FC007F2035290230A4
:0E025E00FC00862035290430FC0092200800A8
:10026C008030831203134106F00080307002031DAE
:10027C0041290030400203184C294008003CF00092
:10028C004108031C013EF101F10250294008F00025
:06029C004108F10008001A
:1002A200831203137408003A031D6C297508003A7F
:1002B200031D6C297608003A031D6C297708003A61
:1002C200031D6C29FF30F000FF30F1007F30F20097
:1002D200FF30F300072A8312031377080319FB295F
:1002E20073080319FE29720876068039FA00F2179C
:1002F200F617A0017208F8007108FC007008FD00F2
:100302007408FD027508031C750FFC027608031CB5
:10031200760FF802F801FC01FD01031C9729031076
:10032200F20CF10CF00CF80C0130A0007708F3028B
:10033200031CA1297E302007F3070318012AA629EE
:100342007E302007F307031C042A1830FA07FD0D3C
:10035200FC0DF80DF00DF10DF20DA00D7408F00278
:100362007508031C750FF1027608031C760FF20262
:10037200760DA004201CBF297D14CA297408F00739
:1003820075080318750FF10776080318760AF20745
:100392007D10FA031F307A05031DA8297B1B7D1CE3
:1003A200F1290310F00DF10DF20DA00D7408F00209
:1003B2007508031C750FF1027608031C760FF20212
:1003C200760D20040139FD070318FC0A0319F80A07
:1003D200031DF129F80CFC0CFD0CF30A0319012A88
:1003E200FA1FF8137808F2007C08F1007D08F0008B
:1003F2000030062A01300421062A02307F20062A14
:0E04020004307320062A08308620000008000F
:10041000831203137008F800FB01FC019E30F30007
:10042000FA01F201F101F0010230FC00962008000F
:1004300083120313FB017308031D770803196F2A46
:1004400072087606FA007708F3077E30031C2C2A20
:10045000F3020318722A2F2AF302031C752A72086A
:10046000F8007108FC007008FD00F817F61703107B
:10047000F201F101F0011830A0007D1C492A740836
:10048000F00775080318750FF10776080318760F43
:10049000F207F20CF10CF00CF80CFC0CFD0C031044
:1004A000A00B3D2AF21B592AF80DF00DF10DF20DAB
:1004B000F3037B1B701C6B2AF81F6B2AF00A0319CD
:1004C000F10A0319F20A031D6B2AF20CF10CF00C6D
:1004D000F30A0319722AFA1FF2130030772A013047
:1004E0007F20772A02307320772A0430862000008C
:0204F000080002
:1004F200831203137008F8007108F000F101F20191
:10050200F301FB01FC019630F300FA01F01F8F2A80
:10051200F809F009F80A0319F00AFA177008F1004D
:0C0522007808F000F801F2010721080041
:10052E0083120313FB01FC01FA0173080319C42A99
:10053E00FA13F2178630F302F31BA82A0319A82A1E
:10054E00C62AF309F30A08307302031CB52AF30016
:10055E00F20DF2017308031D0310BC2A7308031970
:10056E00BC2A0310F20CF30BB82A7B1B721CC42A94
:10057E00031CC42AF20A0319CB2AF101CE2A7B14DA
:10058E00FB1FD12AF101D12A0130FC00D32A003001
:10059E00FC00D32AFF30FC00FC080319D72AF720F1
:0605AE007208F0000800D5
:1005B40083120313FB0173080319172B7208FA0043
:1005C400F2178E30F302F31F1A2BF309F30A0830E3
:1005D4007302031CFD2AF300F10D7208F100F2010D
:1005E40008307302031CFD2AF300F10DF1017308B6
:1005F400031D0310052B73080319052B0310F20CBC
:10060400F10CF30B002B7B1B711C0F2B031C0F2B0A
:10061400F10A0319F20AF21B262BFA1F292BF209FD
:10062400F109F10A0319F20A292BF201F101292B2C
:100634007B14FB1F2C2BF201FA1F2C2BFF30F20032
:10064400F100FA0DF20C2C2B0130FC002E2B0030A3
:10065400FC002E2BFF30FC00FC080319322BF72082
:0A0664007108F0007208F1000800B0
:10066E00F0208A110A128000840AA50A0319A60A2C
:08067E00F003031D372B0800F7
:100686008312031372087606A000F801F9017308B5
:100696007702031C662B7708FD007308F7007D08B8
:1006A600F3007608FD007208F6007D08F200750872
:1006B600FD007108F5007D08F1007408FD00700862
:1006C600F4007D08F00077080319DF2B7208FA00A2
:1006D600F217F61777087302F7000319992B0830FB
:1006E6007702031C8F2BF7007408F9007508F400D5
:1006F6007608F500F60108307702031C8F2BF70009
:100706007408F9007508F400F50108307702031C37
:100716008F2B7A08F200DF2B77080319992B031029
:10072600F60CF50CF40CF90CF70B922BA01FA62B6C
:10073600F909F409F509F609F90A0319F40A03197E
:10074600F50A0319F60A7908F80774080318740FEE
:10075600F00775080318750FF10776080318760F6A
:10076600F207A01BBF2B031CCF2BF20CF10CF00CD5
:10077600F80CF30FCF2BDB2B0318D32BF809F0095A
:10078600F109F209F80A0319F00A0319F10A031923
:10079600F20A8030FA06D72B0130FC009620E12BB6
:1007A6000230FC009620E12B0430FC000721E12BEF
:1007B6000830FC007320E12B0030FC00000008002C
:1007C60083120313A701A801A9017D30AA00963060
:1007D600AB00AC01AD01AE016F30AF0083168501F1
:1007E6008601870188010330890083129F010E303C
:1007F60083169F0002308100A0308B008312850192
:100806008601870188012B08963A03197D2C2B084F
:10081600963CBE00BF01031CBF033E08B6003F085E
:10082600B7002F08FF3CF000F101031CF10370082C
:10083600B4007108B50079227008BA007108BB00CF
:100846007208BC007308BD003E08F0003F08F100C6
:1008560079220030F4000030F5001630F6008630BC
:10086600F70051213A08F4003B08F5003C08F60071
:100876003D08F70018227008B0007108B100720830
:10088600B2007308B3002708F4002808F500290809
:10089600F6002A08F70018227008B0007108B100A7
:1008A6007208B2007308B300DA227008C00071083B
:1008B600C10036218030F200803071067202031DBD
:1008C600662C7008013C03187D2C2F08F0000822C6
:1008D6003008F4003108F5003208F6003308F70056
:1008E600432397227008AF007008FA3C03187D2C4A
:1008F600FA30AF000830FB009D30FC000530FD00EB
:10090600FD0B832CFC0B832CFB0B832C00000000BF
:04091600062C8C2CF3
:10091A00003400340034003400340034003400342D
:10092A00003400340034003400340034003400341D
:10093A00103400340034003400343034303430346D
:10094A003C343C343E343E343E343F343E343F340F
:10095A003F343F343F343F343E343E343E343F34F8
:10096A003F343F343F343F343F343E343E343E34E8
:10097A003E343E343E343F343F341F341F343F3418
:10098A003F343F341F341E341F341734173437347E
:10099A00273427342734073407340F340F340F34FD
:1009AA000F340F342F342F343F343F343F3407345D
:1009BA000334033400340034003400340034003487
:1009CA00003400340034003400340034003400347D
:1009DA00003400340034003400340034003400346D
:1009EA00003420342034303438343C343834383409
:1009FA003934383438343C343F343F343F343E346D
:100A0A003C343C343C3438343834303430340034B8
:100A1A00003400340034003400340034003400342C
:100A2A00003400340034003400340034003400341C
:0C0A3A0000340034003400340034003478
:100A46003034303430343034303430343034383478
:100A56003C3434343034303430343034303432345E
:100A66003A343F343F343F343F343F343F343F34ED
:100A76003F343F343F343F343F343F343F343F34D8
:100A86003F343F343F343F343F343F343F343F34C8
:100A96003F343F343F343F343F343F343F343F34B8
:100AA6003F343F343F343F343F343F343F343F34A8
:100AB6003F343F343F343F343F343F343F343F3498
:100AC6003F343F34373437343B341F341F341F34FC
:100AD6000B3403340334033406340434043400344E
:100AE6000034003400340034003400340034203440
:100AF6002034203420342034303430343034303410
:100B06002034003402340634063406342F343734A5
:100B16003F342F343F340F34073407343734063428
:100B2600273427343F343F343F343F343F343F3457
:100B36003F343F343F343F343F343F343F343E3418
:100B46003E343C343C343834383438343034303441
:100B5600303430343034383438343834383430344F
:0C0B6600303400340034003400342034FB
:100B720000340034003400340034003400340034D3
:100B82000034003400340734033407340F341F3484
:100B92000F340F341F343F341F340F340F341F34DB
:100BA200073407340734023400340034003400348C
:100BB2000034003400340034003400340034003493
:100BC2000034003400340034003400340034003483
:100BD20000340034003400340034003400340C3467
:100BE2000C3400341034303438343E343E343F3424
:100BF2003F343F343F343F343E34383400340034E1
:100C02000034003400340034003400340034003442
:100C12000034003400340034003400340034003432
:100C2200003400342034303438343C343C343E34E4
:100C32003F343F343F343F343F343F343F343F341A
:100C42003F34303430342034003400340034003443
:100C520000340034003400340034003400340034F2
:100C620000340034003400340034003400340034E2
:100C720000340034003400340034003400340034D2
:100C820000340034003400340034003400340034C2
:0C0C92000034003400340034003400341E
:100C9E0000340034003400340034003400340034A6
:100CAE000034003400340034003400340134013494
:100CBE000134013400340234003400340034003482
:100CCE00223400340634063402340E343C343334C9
:100CDE0026343434203400340034003400340034EC
:100CEE0000342834303430340034003400340034CE
:100CFE0000340034003400340034203438342C34C2
:100D0E003C343C341E343F343F343F343F343F3464
:100D1E003F343F343F343F343F343F343E343C3431
:100D2E003834383438343834383438343834383455
:100D3E00383430340034003400340034003400349D
:100D4E0000340034003401340134013401340334EE
:100D5E0007340734073407340F340F340F340F348D
:100D6E000F340F340F340F34033400341034103476
:100D7E002034203420342034003400340034003445
:100D8E0000340034003400340034003400340034B5
:100D9E0000340034003400340034003400340034A5
:100DAE000034003400340034003400340034003495
:0C0DBE00003400340034003400340034F1
:02400E000A2F77
:00000001FF
